{
  "transactions": [
    {
      "hash": "0x52f71fd17c0a1a6ab58ba8a2a48e6341cd459cef70f77e4fa847af2eec1465d3",
      "transactionType": "CALL",
      "contractName": null,
      "contractAddress": "0x25db8c03376f3fe5349cc42768dc9268e3f6d1ba",
      "function": "setPeer(uint32,bytes32)",
      "arguments": [
        "40231",
        "0x000000000000000000000000e6ce8c45efb71db0ea6e150c9928e9664d874151"
      ],
      "transaction": {
        "from": "0xe8153afbe4739d4477c1ff86a26ab9085c4edc69",
        "to": "0x25db8c03376f3fe5349cc42768dc9268e3f6d1ba",
        "gas": "0x110b9",
        "value": "0x0",
        "input": "0x3400288b0000000000000000000000000000000000000000000000000000000000009d27000000000000000000000000e6ce8c45efb71db0ea6e150c9928e9664d874151",
        "nonce": "0x4ad",
        "chainId": "0xaa36a7"
      },
      "additionalContracts": [],
      "isFixedGasLimit": false
    }
  ],
  "receipts": [
    {
      "status": "0x1",
      "cumulativeGasUsed": "0xde4664",
      "logs": [
        {
          "address": "0x25db8c03376f3fe5349cc42768dc9268e3f6d1ba",
          "topics": [
            "0x238399d427b947898edb290f5ff0f9109849b1c3ba196a42e35f00c50a54b98b"
          ],
          "data": "0x0000000000000000000000000000000000000000000000000000000000009d27000000000000000000000000e6ce8c45efb71db0ea6e150c9928e9664d874151",
          "blockHash": "0x53c670642938ae65bdbddf75687e841ab37427222f1d4a09937d8762ab7245e9",
          "blockNumber": "0x7a65ce",
          "transactionHash": "0x52f71fd17c0a1a6ab58ba8a2a48e6341cd459cef70f77e4fa847af2eec1465d3",
          "transactionIndex": "0x9b",
          "logIndex": "0xc0",
          "removed": false
        }
      ],
      "logsBloom": "0x00000000000000000000000080000000000000000000000000000000000000000000000000000000000000000000000000000000000000000800000000000000000000000000000000000000000000000000000000000000000000000000000000000000000000000000001000000000000000000000200000000000000000000000000000000000000000000000000000000000000000000000000000000000000000000000000000000000000000000000000000000000000002000000000000000000000000000000000000000000000000000000000000040000000000000000000000000000000000000000000000000000000000000000000000000000",
      "type": "0x2",
      "transactionHash": "0x52f71fd17c0a1a6ab58ba8a2a48e6341cd459cef70f77e4fa847af2eec1465d3",
      "transactionIndex": "0x9b",
      "blockHash": "0x53c670642938ae65bdbddf75687e841ab37427222f1d4a09937d8762ab7245e9",
      "blockNumber": "0x7a65ce",
      "gasUsed": "0xba7b",
      "effectiveGasPrice": "0xe20b0701",
      "from": "0xe8153afbe4739d4477c1ff86a26ab9085c4edc69",
      "to": "0x25db8c03376f3fe5349cc42768dc9268e3f6d1ba",
      "contractAddress": null
    }
  ],
  "libraries": [],
  "pending": [],
  "returns": {},
  "timestamp": 1743434407,
  "chain": 11155111,
  "commit": "31a327c"
}