{
  "transactions": [
    {
      "hash": null,
      "transactionType": "CALL",
      "contractName": null,
      "contractAddress": "0xe6a422d4bdd3c5e16709d08d24e210738ac75329",
      "function": "send((uint32,bytes32,uint256,uint256,bytes,bytes,bytes),(uint256,uint256),address)",
      "arguments": [
        "(40161, 0x000000000000000000000000e8153afbe4739d4477c1ff86a26ab9085c4edc69, 10000000000000000000, 10000000000000000000, 0x00030100110100000000000000000000000000030d40, 0x, 0x)",
        "(75055372991966438, 0)",
        "0x5b73C5498c1E3b4dbA84de0F1833c4a029d90519"
      ],
      "transaction": {
        "from": "0xe8153afbe4739d4477c1ff86a26ab9085c4edc69",
        "to": "0xe6a422d4bdd3c5e16709d08d24e210738ac75329",
        "gas": "0xacd82",
        "value": "0x10aa676cdabace6",
        "input": "0xc7c7f5b30000000000000000000000000000000000000000000000000000000000000080000000000000000000000000000000000000000000000000010aa676cdabace600000000000000000000000000000000000000000000000000000000000000000000000000000000000000005b73c5498c1e3b4dba84de0f1833c4a029d905190000000000000000000000000000000000000000000000000000000000009ce1000000000000000000000000e8153afbe4739d4477c1ff86a26ab9085c4edc690000000000000000000000000000000000000000000000008ac7230489e800000000000000000000000000000000000000000000000000008ac7230489e8000000000000000000000000000000000000000000000000000000000000000000e000000000000000000000000000000000000000000000000000000000000001200000000000000000000000000000000000000000000000000000000000000140000000000000000000000000000000000000000000000000000000000000001600030100110100000000000000000000000000030d400000000000000000000000000000000000000000000000000000000000000000000000000000000000000000000000000000000000000000000000000000000000000000000000000000",
        "nonce": "0x4",
        "chainId": "0x66eee"
      },
      "additionalContracts": [],
      "isFixedGasLimit": false
    }
  ],
  "receipts": [],
  "libraries": [],
  "pending": [],
  "returns": {},
  "timestamp": 1741605375,
  "chain": 421614,
  "commit": null
}