{
  "transactions": [
    {
      "hash": "0xfd568bd86fd52ff726265b100154d2ab524d564388cd0228b25d407f96bde616",
      "transactionType": "CALL",
      "contractName": null,
      "contractAddress": "0xe6a422d4bdd3c5e16709d08d24e210738ac75329",
      "function": "send((uint32,bytes32,uint256,uint256,bytes,bytes,bytes),(uint256,uint256),address)",
      "arguments": [
        "(40161, 0x000000000000000000000000e8153afbe4739d4477c1ff86a26ab9085c4edc69, 10000000000000000000, 10000000000000000000, 0x00030100110100000000000000000000000000030d40, 0x, 0x)",
        "(75055372991966438, 0)",
        "0x5b73C5498c1E3b4dbA84de0F1833c4a029d90519"
      ],
      "transaction": {
        "from": "0xe8153afbe4739d4477c1ff86a26ab9085c4edc69",
        "to": "0xe6a422d4bdd3c5e16709d08d24e210738ac75329",
        "gas": "0xacd82",
        "value": "0x10aa676cdabace6",
        "input": "0xc7c7f5b30000000000000000000000000000000000000000000000000000000000000080000000000000000000000000000000000000000000000000010aa676cdabace600000000000000000000000000000000000000000000000000000000000000000000000000000000000000005b73c5498c1e3b4dba84de0f1833c4a029d905190000000000000000000000000000000000000000000000000000000000009ce1000000000000000000000000e8153afbe4739d4477c1ff86a26ab9085c4edc690000000000000000000000000000000000000000000000008ac7230489e800000000000000000000000000000000000000000000000000008ac7230489e8000000000000000000000000000000000000000000000000000000000000000000e000000000000000000000000000000000000000000000000000000000000001200000000000000000000000000000000000000000000000000000000000000140000000000000000000000000000000000000000000000000000000000000001600030100110100000000000000000000000000030d400000000000000000000000000000000000000000000000000000000000000000000000000000000000000000000000000000000000000000000000000000000000000000000000000000",
        "nonce": "0x4",
        "chainId": "0x66eee"
      },
      "additionalContracts": [],
      "isFixedGasLimit": false
    }
  ],
  "receipts": [
    {
      "status": "0x1",
      "cumulativeGasUsed": "0x73cf9",
      "logs": [
        {
          "address": "0xe6a422d4bdd3c5e16709d08d24e210738ac75329",
          "topics": [
            "0xddf252ad1be2c89b69c2b068fc378daa952ba7f163c4a11628f55a4df523b3ef",
            "0x000000000000000000000000e8153afbe4739d4477c1ff86a26ab9085c4edc69",
            "0x0000000000000000000000000000000000000000000000000000000000000000"
          ],
          "data": "0x0000000000000000000000000000000000000000000000008ac7230489e80000",
          "blockHash": "0x3059f5dff51e4a7159b0148500ade97e0dbd47061730924f2d0d5eba769328d0",
          "blockNumber": "0x7cfc15c",
          "transactionHash": "0xfd568bd86fd52ff726265b100154d2ab524d564388cd0228b25d407f96bde616",
          "transactionIndex": "0x1",
          "logIndex": "0x0",
          "removed": false
        },
        {
          "address": "0x4f7cd4da19abb31b0ec98b9066b9e857b1bf9c0e",
          "topics": [
            "0x61ed099e74a97a1d7f8bb0952a88ca8b7b8ebd00c126ea04671f92a81213318a"
          ],
          "data": "0x0000000000000000000000005df3a1cebbd9c8ba7f8df51fd632a9aef830889700000000000000000000000000000000000000000000000000c6671301c34380",
          "blockHash": "0x3059f5dff51e4a7159b0148500ade97e0dbd47061730924f2d0d5eba769328d0",
          "blockNumber": "0x7cfc15c",
          "transactionHash": "0xfd568bd86fd52ff726265b100154d2ab524d564388cd0228b25d407f96bde616",
          "transactionIndex": "0x1",
          "logIndex": "0x1",
          "removed": false
        },
        {
          "address": "0x4f7cd4da19abb31b0ec98b9066b9e857b1bf9c0e",
          "topics": [
            "0x07ea52d82345d6e838192107d8fd7123d9c2ec8e916cd0aad13fd2b60db24644"
          ],
          "data": "0x000000000000000000000000000000000000000000000000000000000000006000000000000000000000000000000000000000000000000000000000000000a000000000000000000000000000000000000000000000000000000000000000c0000000000000000000000000000000000000000000000000000000000000000100000000000000000000000053f488e93b4f1b60e8e83aa374dbe1780a1ee8a80000000000000000000000000000000000000000000000000000000000000000000000000000000000000000000000000000000000000000000000000000000100000000000000000000000000000000000000000000000000443f63cbe86966",
          "blockHash": "0x3059f5dff51e4a7159b0148500ade97e0dbd47061730924f2d0d5eba769328d0",
          "blockNumber": "0x7cfc15c",
          "transactionHash": "0xfd568bd86fd52ff726265b100154d2ab524d564388cd0228b25d407f96bde616",
          "transactionIndex": "0x1",
          "logIndex": "0x2",
          "removed": false
        },
        {
          "address": "0x6edce65403992e310a62460808c4b910d972f10f",
          "topics": [
            "0x1ab700d4ced0c005b164c0f789fd09fcbb0156d4c2041b8a3bfbcd961cd1567f"
          ],
          "data": "0x000000000000000000000000000000000000000000000000000000000000006000000000000000000000000000000000000000000000000000000000000001200000000000000000000000004f7cd4da19abb31b0ec98b9066b9e857b1bf9c0e000000000000000000000000000000000000000000000000000000000000009901000000000000000100009d27000000000000000000000000e6a422d4bdd3c5e16709d08d24e210738ac7532900009ce10000000000000000000000002bc282aa1c08ef1cede655e70e94399a8aaee696b8db63c4414cd7509627e8ba5e7af6d322f3285dab8bcaca2c497288ebe19a5a000000000000000000000000e8153afbe4739d4477c1ff86a26ab9085c4edc69000000000098968000000000000000000000000000000000000000000000000000000000000000000000000000001600030100110100000000000000000000000000030d4000000000000000000000",
          "blockHash": "0x3059f5dff51e4a7159b0148500ade97e0dbd47061730924f2d0d5eba769328d0",
          "blockNumber": "0x7cfc15c",
          "transactionHash": "0xfd568bd86fd52ff726265b100154d2ab524d564388cd0228b25d407f96bde616",
          "transactionIndex": "0x1",
          "logIndex": "0x3",
          "removed": false
        },
        {
          "address": "0xe6a422d4bdd3c5e16709d08d24e210738ac75329",
          "topics": [
            "0x85496b760a4b7f8d66384b9df21b381f5d1b1e79f229a47aaf4c232edc2fe59a",
            "0xb8db63c4414cd7509627e8ba5e7af6d322f3285dab8bcaca2c497288ebe19a5a",
            "0x000000000000000000000000e8153afbe4739d4477c1ff86a26ab9085c4edc69"
          ],
          "data": "0x0000000000000000000000000000000000000000000000000000000000009ce10000000000000000000000000000000000000000000000008ac7230489e800000000000000000000000000000000000000000000000000008ac7230489e80000",
          "blockHash": "0x3059f5dff51e4a7159b0148500ade97e0dbd47061730924f2d0d5eba769328d0",
          "blockNumber": "0x7cfc15c",
          "transactionHash": "0xfd568bd86fd52ff726265b100154d2ab524d564388cd0228b25d407f96bde616",
          "transactionIndex": "0x1",
          "logIndex": "0x4",
          "removed": false
        }
      ],
      "logsBloom": "0x00000000000000000040000000000000000000000000000000000000000000000000000080000000200000000000000000000000008000000200000000000000000002000000000000000008000000000000000000000000000000000000000000000000020000008200000001000800000000000000000000000010000000000000000000000022000000180000000000000000000000010400000000000000000000008000020000102000000000000000000000400000000440000000000000000002000008000000000080000000000000000000000000000000000020000000040000000000000000000000002000000000008000000000000000000000",
      "type": "0x2",
      "transactionHash": "0xfd568bd86fd52ff726265b100154d2ab524d564388cd0228b25d407f96bde616",
      "transactionIndex": "0x1",
      "blockHash": "0x3059f5dff51e4a7159b0148500ade97e0dbd47061730924f2d0d5eba769328d0",
      "blockNumber": "0x7cfc15c",
      "gasUsed": "0x73cf9",
      "effectiveGasPrice": "0x5f5e100",
      "from": "0xe8153afbe4739d4477c1ff86a26ab9085c4edc69",
      "to": "0xe6a422d4bdd3c5e16709d08d24e210738ac75329",
      "contractAddress": null,
      "gasUsedForL1": "0x3a7c7",
      "l1BlockNumber": "0x78223e",
      "timeboosted": false
    }
  ],
  "libraries": [],
  "pending": [],
  "returns": {},
  "timestamp": 1741605456,
  "chain": 421614,
  "commit": null
}