{
  "transactions": [
    {
      "hash": "0x09536c8061afb44f31d657187e826050c18bbf1859d68d6a8b4e706d093b6dc6",
      "transactionType": "CALL",
      "contractName": "NumaOFT",
      "contractAddress": "0xe6ce8c45efb71db0ea6e150c9928e9664d874151",
      "function": "setPeer(uint32,bytes32)",
      "arguments": [
        "40161",
        "0x00000000000000000000000025db8c03376f3fe5349cc42768dc9268e3f6d1ba"
      ],
      "transaction": {
        "from": "0xe8153afbe4739d4477c1ff86a26ab9085c4edc69",
        "to": "0xe6ce8c45efb71db0ea6e150c9928e9664d874151",
        "gas": "0xf40b",
        "value": "0x0",
        "input": "0x3400288b0000000000000000000000000000000000000000000000000000000000009ce100000000000000000000000025db8c03376f3fe5349cc42768dc9268e3f6d1ba",
        "nonce": "0x38",
        "chainId": "0x66eee"
      },
      "additionalContracts": [],
      "isFixedGasLimit": false
    }
  ],
  "receipts": [
    {
      "status": "0x1",
      "cumulativeGasUsed": "0xba39",
      "logs": [
        {
          "address": "0xe6ce8c45efb71db0ea6e150c9928e9664d874151",
          "topics": [
            "0x238399d427b947898edb290f5ff0f9109849b1c3ba196a42e35f00c50a54b98b"
          ],
          "data": "0x0000000000000000000000000000000000000000000000000000000000009ce100000000000000000000000025db8c03376f3fe5349cc42768dc9268e3f6d1ba",
          "blockHash": "0x68be9fe5edad50fa4149b747b86c133822c6f0e0e85de0afaf249c841457fedc",
          "blockNumber": "0x836abff",
          "transactionHash": "0x09536c8061afb44f31d657187e826050c18bbf1859d68d6a8b4e706d093b6dc6",
          "transactionIndex": "0x1",
          "logIndex": "0x0",
          "removed": false
        }
      ],
      "logsBloom": "0x00000000000000000000000000000000000000000000000000000000000000000000000000000000000000000000000000000000000000000800000000000000000000000000000000000000000000000000000000000000000000000000000000000000000000000000000000000000000000000000000000000000000000000000000000000000000200000000000000000000000000000000000000000000000000000000000000000000000000000000000000000000000002000000000000000000000000000000000000000000000000000000000000040000000000000000000000080000000000000000000000000000000000000040000000000000",
      "type": "0x2",
      "transactionHash": "0x09536c8061afb44f31d657187e826050c18bbf1859d68d6a8b4e706d093b6dc6",
      "transactionIndex": "0x1",
      "blockHash": "0x68be9fe5edad50fa4149b747b86c133822c6f0e0e85de0afaf249c841457fedc",
      "blockNumber": "0x836abff",
      "gasUsed": "0xba39",
      "effectiveGasPrice": "0x5f5e100",
      "from": "0xe8153afbe4739d4477c1ff86a26ab9085c4edc69",
      "to": "0xe6ce8c45efb71db0ea6e150c9928e9664d874151",
      "contractAddress": null,
      "gasUsedForL1": "0x0",
      "l1BlockNumber": "0x7a65ca",
      "timeboosted": false
    }
  ],
  "libraries": [],
  "pending": [],
  "returns": {},
  "timestamp": 1743434367,
  "chain": 421614,
  "commit": "31a327c"
}