{
  "transactions": [
    {
      "hash": null,
      "transactionType": "CALL",
      "contractName": null,
      "contractAddress": "0xf478f8dedebe67cc095693a9d6778deb3fb67ffe",
      "function": "approve(address,uint256)",
      "arguments": [
        "0x2bC282Aa1c08eF1cedE655e70E94399A8Aaee696",
        "10000000000000000000"
      ],
      "transaction": {
        "from": "0xe8153afbe4739d4477c1ff86a26ab9085c4edc69",
        "to": "0xf478f8dedebe67cc095693a9d6778deb3fb67ffe",
        "gas": "0x126b2",
        "value": "0x0",
        "input": "0x095ea7b30000000000000000000000002bc282aa1c08ef1cede655e70e94399a8aaee6960000000000000000000000000000000000000000000000008ac7230489e80000",
        "nonce": "0x4a5",
        "chainId": "0xaa36a7"
      },
      "additionalContracts": [],
      "isFixedGasLimit": false
    },
    {
      "hash": null,
      "transactionType": "CALL",
      "contractName": null,
      "contractAddress": "0x2bc282aa1c08ef1cede655e70e94399a8aaee696",
      "function": "send((uint32,bytes32,uint256,uint256,bytes,bytes,bytes),(uint256,uint256),address)",
      "arguments": [
        "(40231, 0x000000000000000000000000e8153afbe4739d4477c1ff86a26ab9085c4edc69, 10000000000000000000, 10000000000000000000, 0x00030100110100000000000000000000000000030d40, 0x, 0x)",
        "(130846731480512, 0)",
        "0x5b73C5498c1E3b4dbA84de0F1833c4a029d90519"
      ],
      "transaction": {
        "from": "0xe8153afbe4739d4477c1ff86a26ab9085c4edc69",
        "to": "0x2bc282aa1c08ef1cede655e70e94399a8aaee696",
        "gas": "0x63d6e",
        "value": "0x770120f32dc0",
        "input": "0xc7c7f5b300000000000000000000000000000000000000000000000000000000000000800000000000000000000000000000000000000000000000000000770120f32dc000000000000000000000000000000000000000000000000000000000000000000000000000000000000000005b73c5498c1e3b4dba84de0f1833c4a029d905190000000000000000000000000000000000000000000000000000000000009d27000000000000000000000000e8153afbe4739d4477c1ff86a26ab9085c4edc690000000000000000000000000000000000000000000000008ac7230489e800000000000000000000000000000000000000000000000000008ac7230489e8000000000000000000000000000000000000000000000000000000000000000000e000000000000000000000000000000000000000000000000000000000000001200000000000000000000000000000000000000000000000000000000000000140000000000000000000000000000000000000000000000000000000000000001600030100110100000000000000000000000000030d400000000000000000000000000000000000000000000000000000000000000000000000000000000000000000000000000000000000000000000000000000000000000000000000000000",
        "nonce": "0x4a6",
        "chainId": "0xaa36a7"
      },
      "additionalContracts": [],
      "isFixedGasLimit": false
    }
  ],
  "receipts": [],
  "libraries": [],
  "pending": [],
  "returns": {},
  "timestamp": 1741279559,
  "chain": 11155111,
  "commit": null
}