{
  "transactions": [
    {
      "hash": "0x3b093be76af1134a2f568a779129f27540233f678e9ca23845db9de75fe0bd08",
      "transactionType": "CALL",
      "contractName": null,
      "contractAddress": "0xf478f8dedebe67cc095693a9d6778deb3fb67ffe",
      "function": "approve(address,uint256)",
      "arguments": [
        "0x2bC282Aa1c08eF1cedE655e70E94399A8Aaee696",
        "10000000000000000000"
      ],
      "transaction": {
        "from": "0xe8153afbe4739d4477c1ff86a26ab9085c4edc69",
        "to": "0xf478f8dedebe67cc095693a9d6778deb3fb67ffe",
        "gas": "0x126b2",
        "value": "0x0",
        "input": "0x095ea7b30000000000000000000000002bc282aa1c08ef1cede655e70e94399a8aaee6960000000000000000000000000000000000000000000000008ac7230489e80000",
        "nonce": "0x4a5",
        "chainId": "0xaa36a7"
      },
      "additionalContracts": [],
      "isFixedGasLimit": false
    },
    {
      "hash": "0x0a05b201f17e16e4a81315caf5a68e0db9e1355a7b00991f5ac1b07d9a641612",
      "transactionType": "CALL",
      "contractName": null,
      "contractAddress": "0x2bc282aa1c08ef1cede655e70e94399a8aaee696",
      "function": "send((uint32,bytes32,uint256,uint256,bytes,bytes,bytes),(uint256,uint256),address)",
      "arguments": [
        "(40231, 0x000000000000000000000000e8153afbe4739d4477c1ff86a26ab9085c4edc69, 10000000000000000000, 10000000000000000000, 0x00030100110100000000000000000000000000030d40, 0x, 0x)",
        "(130846731480512, 0)",
        "0x5b73C5498c1E3b4dbA84de0F1833c4a029d90519"
      ],
      "transaction": {
        "from": "0xe8153afbe4739d4477c1ff86a26ab9085c4edc69",
        "to": "0x2bc282aa1c08ef1cede655e70e94399a8aaee696",
        "gas": "0x63d6e",
        "value": "0x770120f32dc0",
        "input": "0xc7c7f5b300000000000000000000000000000000000000000000000000000000000000800000000000000000000000000000000000000000000000000000770120f32dc000000000000000000000000000000000000000000000000000000000000000000000000000000000000000005b73c5498c1e3b4dba84de0f1833c4a029d905190000000000000000000000000000000000000000000000000000000000009d27000000000000000000000000e8153afbe4739d4477c1ff86a26ab9085c4edc690000000000000000000000000000000000000000000000008ac7230489e800000000000000000000000000000000000000000000000000008ac7230489e8000000000000000000000000000000000000000000000000000000000000000000e000000000000000000000000000000000000000000000000000000000000001200000000000000000000000000000000000000000000000000000000000000140000000000000000000000000000000000000000000000000000000000000001600030100110100000000000000000000000000030d400000000000000000000000000000000000000000000000000000000000000000000000000000000000000000000000000000000000000000000000000000000000000000000000000000",
        "nonce": "0x4a6",
        "chainId": "0xaa36a7"
      },
      "additionalContracts": [],
      "isFixedGasLimit": false
    }
  ],
  "receipts": [
    {
      "status": "0x1",
      "cumulativeGasUsed": "0xb7d7fa",
      "logs": [
        {
          "address": "0xf478f8dedebe67cc095693a9d6778deb3fb67ffe",
          "topics": [
            "0x8c5be1e5ebec7d5bd14f71427d1e84f3dd0314c0f7b2291e5b200ac8c7c3b925",
            "0x000000000000000000000000e8153afbe4739d4477c1ff86a26ab9085c4edc69",
            "0x0000000000000000000000002bc282aa1c08ef1cede655e70e94399a8aaee696"
          ],
          "data": "0x0000000000000000000000000000000000000000000000008ac7230489e80000",
          "blockHash": "0x1e5c91945c77981fddfd01b3f3ca6fe068706ae2ee1669096b638e54e93c708a",
          "blockNumber": "0x77b93d",
          "transactionHash": "0x3b093be76af1134a2f568a779129f27540233f678e9ca23845db9de75fe0bd08",
          "transactionIndex": "0x6d",
          "logIndex": "0x97",
          "removed": false
        }
      ],
      "logsBloom": "0x00000000000000000000000000000000000000000000000000000000000000000000000080000000000000000000000000000000000000000200000000200000000000000000004000000000000000000000000000000000000010000000000000000000000000000000000000000000000000000000000000000000000000000000000000000002000000000000000000000000000000000000000000000000020000080000000000000000000000000000000000000000200000000000000000000000000000000000000000000100000000000000000000000000000000000010000000000000000000000000000000000000000000000000000000040000",
      "type": "0x2",
      "transactionHash": "0x3b093be76af1134a2f568a779129f27540233f678e9ca23845db9de75fe0bd08",
      "transactionIndex": "0x6d",
      "blockHash": "0x1e5c91945c77981fddfd01b3f3ca6fe068706ae2ee1669096b638e54e93c708a",
      "blockNumber": "0x77b93d",
      "gasUsed": "0xc981",
      "effectiveGasPrice": "0x22aa7bf",
      "from": "0xe8153afbe4739d4477c1ff86a26ab9085c4edc69",
      "to": "0xf478f8dedebe67cc095693a9d6778deb3fb67ffe",
      "contractAddress": null
    },
    {
      "status": "0x1",
      "cumulativeGasUsed": "0xbc1c3d",
      "logs": [
        {
          "address": "0xf478f8dedebe67cc095693a9d6778deb3fb67ffe",
          "topics": [
            "0x8c5be1e5ebec7d5bd14f71427d1e84f3dd0314c0f7b2291e5b200ac8c7c3b925",
            "0x000000000000000000000000e8153afbe4739d4477c1ff86a26ab9085c4edc69",
            "0x0000000000000000000000002bc282aa1c08ef1cede655e70e94399a8aaee696"
          ],
          "data": "0x0000000000000000000000000000000000000000000000000000000000000000",
          "blockHash": "0x1e5c91945c77981fddfd01b3f3ca6fe068706ae2ee1669096b638e54e93c708a",
          "blockNumber": "0x77b93d",
          "transactionHash": "0x0a05b201f17e16e4a81315caf5a68e0db9e1355a7b00991f5ac1b07d9a641612",
          "transactionIndex": "0x6e",
          "logIndex": "0x98",
          "removed": false
        },
        {
          "address": "0xf478f8dedebe67cc095693a9d6778deb3fb67ffe",
          "topics": [
            "0xddf252ad1be2c89b69c2b068fc378daa952ba7f163c4a11628f55a4df523b3ef",
            "0x000000000000000000000000e8153afbe4739d4477c1ff86a26ab9085c4edc69",
            "0x0000000000000000000000002bc282aa1c08ef1cede655e70e94399a8aaee696"
          ],
          "data": "0x0000000000000000000000000000000000000000000000008ac7230489e80000",
          "blockHash": "0x1e5c91945c77981fddfd01b3f3ca6fe068706ae2ee1669096b638e54e93c708a",
          "blockNumber": "0x77b93d",
          "transactionHash": "0x0a05b201f17e16e4a81315caf5a68e0db9e1355a7b00991f5ac1b07d9a641612",
          "transactionIndex": "0x6e",
          "logIndex": "0x99",
          "removed": false
        },
        {
          "address": "0xcc1ae8cf5d3904cef3360a9532b477529b177cce",
          "topics": [
            "0x61ed099e74a97a1d7f8bb0952a88ca8b7b8ebd00c126ea04671f92a81213318a"
          ],
          "data": "0x000000000000000000000000718b92b5cb0a5552039b593faf724d182a881eda00000000000000000000000000000000000000000000000000006a1056f53e3d",
          "blockHash": "0x1e5c91945c77981fddfd01b3f3ca6fe068706ae2ee1669096b638e54e93c708a",
          "blockNumber": "0x77b93d",
          "transactionHash": "0x0a05b201f17e16e4a81315caf5a68e0db9e1355a7b00991f5ac1b07d9a641612",
          "transactionIndex": "0x6e",
          "logIndex": "0x9a",
          "removed": false
        },
        {
          "address": "0xcc1ae8cf5d3904cef3360a9532b477529b177cce",
          "topics": [
            "0x07ea52d82345d6e838192107d8fd7123d9c2ec8e916cd0aad13fd2b60db24644"
          ],
          "data": "0x000000000000000000000000000000000000000000000000000000000000006000000000000000000000000000000000000000000000000000000000000000a000000000000000000000000000000000000000000000000000000000000000c000000000000000000000000000000000000000000000000000000000000000010000000000000000000000008eebf8b423b73bfca51a1db4b7354aa0bfca91930000000000000000000000000000000000000000000000000000000000000000000000000000000000000000000000000000000000000000000000000000000100000000000000000000000000000000000000000000000000000cf0c9fdef83",
          "blockHash": "0x1e5c91945c77981fddfd01b3f3ca6fe068706ae2ee1669096b638e54e93c708a",
          "blockNumber": "0x77b93d",
          "transactionHash": "0x0a05b201f17e16e4a81315caf5a68e0db9e1355a7b00991f5ac1b07d9a641612",
          "transactionIndex": "0x6e",
          "logIndex": "0x9b",
          "removed": false
        },
        {
          "address": "0x6edce65403992e310a62460808c4b910d972f10f",
          "topics": [
            "0x1ab700d4ced0c005b164c0f789fd09fcbb0156d4c2041b8a3bfbcd961cd1567f"
          ],
          "data": "0x00000000000000000000000000000000000000000000000000000000000000600000000000000000000000000000000000000000000000000000000000000120000000000000000000000000cc1ae8cf5d3904cef3360a9532b477529b177cce000000000000000000000000000000000000000000000000000000000000009901000000000000000100009ce10000000000000000000000002bc282aa1c08ef1cede655e70e94399a8aaee69600009d27000000000000000000000000e6a422d4bdd3c5e16709d08d24e210738ac75329c0e8ea49c9b1198dfa35652222142fbe63ef2582a0b853b042ef456ad101fc10000000000000000000000000e8153afbe4739d4477c1ff86a26ab9085c4edc69000000000098968000000000000000000000000000000000000000000000000000000000000000000000000000001600030100110100000000000000000000000000030d4000000000000000000000",
          "blockHash": "0x1e5c91945c77981fddfd01b3f3ca6fe068706ae2ee1669096b638e54e93c708a",
          "blockNumber": "0x77b93d",
          "transactionHash": "0x0a05b201f17e16e4a81315caf5a68e0db9e1355a7b00991f5ac1b07d9a641612",
          "transactionIndex": "0x6e",
          "logIndex": "0x9c",
          "removed": false
        },
        {
          "address": "0x2bc282aa1c08ef1cede655e70e94399a8aaee696",
          "topics": [
            "0x85496b760a4b7f8d66384b9df21b381f5d1b1e79f229a47aaf4c232edc2fe59a",
            "0xc0e8ea49c9b1198dfa35652222142fbe63ef2582a0b853b042ef456ad101fc10",
            "0x000000000000000000000000e8153afbe4739d4477c1ff86a26ab9085c4edc69"
          ],
          "data": "0x0000000000000000000000000000000000000000000000000000000000009d270000000000000000000000000000000000000000000000008ac7230489e800000000000000000000000000000000000000000000000000008ac7230489e80000",
          "blockHash": "0x1e5c91945c77981fddfd01b3f3ca6fe068706ae2ee1669096b638e54e93c708a",
          "blockNumber": "0x77b93d",
          "transactionHash": "0x0a05b201f17e16e4a81315caf5a68e0db9e1355a7b00991f5ac1b07d9a641612",
          "transactionIndex": "0x6e",
          "logIndex": "0x9d",
          "removed": false
        }
      ],
      "logsBloom": "0x00000000000000000000000000000000000000000000000000000000000100000000000080000000201000000000000000000000000000200200000000200000200002000000004000000008000000000000000000000000000010000000000000000000000000008200000000000000000000000000000000000010000000000000000000000022000000080000000000000000000000000000000000000000020000088000000000100000000000000000000000400000200440000000000000000002000000000000000080000100000000080000000000004000000000000010050000000000000000000000002000000000008000000000000000040020",
      "type": "0x2",
      "transactionHash": "0x0a05b201f17e16e4a81315caf5a68e0db9e1355a7b00991f5ac1b07d9a641612",
      "transactionIndex": "0x6e",
      "blockHash": "0x1e5c91945c77981fddfd01b3f3ca6fe068706ae2ee1669096b638e54e93c708a",
      "blockNumber": "0x77b93d",
      "gasUsed": "0x44443",
      "effectiveGasPrice": "0x22aa7bf",
      "from": "0xe8153afbe4739d4477c1ff86a26ab9085c4edc69",
      "to": "0x2bc282aa1c08ef1cede655e70e94399a8aaee696",
      "contractAddress": null
    }
  ],
  "libraries": [],
  "pending": [],
  "returns": {},
  "timestamp": 1741281424,
  "chain": 11155111,
  "commit": null
}